{
  "contractName": "CrowdSale",
  "abi": [
    {
      "inputs": [
        {
          "internalType": "address",
          "name": "token_",
          "type": "address"
        },
        {
          "internalType": "uint256",
          "name": "rate_",
          "type": "uint256"
        },
        {
          "internalType": "address",
          "name": "fundAddress_",
          "type": "address"
        }
      ],
      "stateMutability": "nonpayable",
      "type": "constructor"
    },
    {
      "anonymous": false,
      "inputs": [
        {
          "indexed": false,
          "internalType": "uint256",
          "name": "startTime",
          "type": "uint256"
        },
        {
          "indexed": false,
          "internalType": "uint256",
          "name": "endTime",
          "type": "uint256"
        }
      ],
      "name": "CrowdSaleBegun",
      "type": "event"
    },
    {
      "anonymous": false,
      "inputs": [
        {
          "indexed": false,
          "internalType": "uint256",
          "name": "newEndTime",
          "type": "uint256"
        }
      ],
      "name": "CrowdSaleExtended",
      "type": "event"
    },
    {
      "anonymous": false,
      "inputs": [
        {
          "indexed": false,
          "internalType": "uint256",
          "name": "timestamp",
          "type": "uint256"
        }
      ],
      "name": "CrowdSaleFinalized",
      "type": "event"
    },
    {
      "anonymous": false,
      "inputs": [
        {
          "indexed": true,
          "internalType": "address",
          "name": "previousOwner",
          "type": "address"
        },
        {
          "indexed": true,
          "internalType": "address",
          "name": "newOwner",
          "type": "address"
        }
      ],
      "name": "OwnershipTransferred",
      "type": "event"
    },
    {
      "anonymous": false,
      "inputs": [
        {
          "indexed": false,
          "internalType": "address",
          "name": "buyer",
          "type": "address"
        },
        {
          "indexed": false,
          "internalType": "uint256",
          "name": "amount",
          "type": "uint256"
        }
      ],
      "name": "PaymentMade",
      "type": "event"
    },
    {
      "anonymous": false,
      "inputs": [
        {
          "indexed": false,
          "internalType": "uint256",
          "name": "newRate",
          "type": "uint256"
        }
      ],
      "name": "RateChanged",
      "type": "event"
    },
    {
      "anonymous": false,
      "inputs": [
        {
          "indexed": false,
          "internalType": "address",
          "name": "recipient",
          "type": "address"
        },
        {
          "indexed": false,
          "internalType": "uint256",
          "name": "amount",
          "type": "uint256"
        }
      ],
      "name": "TokenSold",
      "type": "event"
    },
    {
      "anonymous": false,
      "inputs": [
        {
          "indexed": false,
          "internalType": "address",
          "name": "account",
          "type": "address"
        }
      ],
      "name": "WhiteListedForWithdrawal",
      "type": "event"
    },
    {
      "inputs": [],
      "name": "owner",
      "outputs": [
        {
          "internalType": "address",
          "name": "",
          "type": "address"
        }
      ],
      "stateMutability": "view",
      "type": "function",
      "constant": true
    },
    {
      "inputs": [],
      "name": "renounceOwnership",
      "outputs": [],
      "stateMutability": "nonpayable",
      "type": "function"
    },
    {
      "inputs": [
        {
          "internalType": "address",
          "name": "newOwner",
          "type": "address"
        }
      ],
      "name": "transferOwnership",
      "outputs": [],
      "stateMutability": "nonpayable",
      "type": "function"
    },
    {
      "stateMutability": "payable",
      "type": "receive",
      "payable": true
    },
    {
      "inputs": [
        {
          "internalType": "uint256",
          "name": "rate_",
          "type": "uint256"
        }
      ],
      "name": "setRate",
      "outputs": [
        {
          "internalType": "bool",
          "name": "",
          "type": "bool"
        }
      ],
      "stateMutability": "nonpayable",
      "type": "function"
    },
    {
      "inputs": [
        {
          "internalType": "uint256",
          "name": "_days",
          "type": "uint256"
        }
      ],
      "name": "beginCrowdSale",
      "outputs": [
        {
          "internalType": "bool",
          "name": "",
          "type": "bool"
        }
      ],
      "stateMutability": "nonpayable",
      "type": "function"
    },
    {
      "inputs": [
        {
          "internalType": "uint256",
          "name": "_days",
          "type": "uint256"
        }
      ],
      "name": "extendCrowdSale",
      "outputs": [
        {
          "internalType": "bool",
          "name": "",
          "type": "bool"
        }
      ],
      "stateMutability": "nonpayable",
      "type": "function"
    },
    {
      "inputs": [],
      "name": "finalizeCrowdSale",
      "outputs": [
        {
          "internalType": "bool",
          "name": "",
          "type": "bool"
        }
      ],
      "stateMutability": "nonpayable",
      "type": "function"
    },
    {
      "inputs": [],
      "name": "getRemainingDays",
      "outputs": [
        {
          "internalType": "uint256",
          "name": "",
          "type": "uint256"
        }
      ],
      "stateMutability": "view",
      "type": "function",
      "constant": true
    },
    {
      "inputs": [],
      "name": "buyWithImmediateWithdrawal",
      "outputs": [],
      "stateMutability": "payable",
      "type": "function",
      "payable": true
    },
    {
      "inputs": [],
      "name": "buyWithLateWithdrawal",
      "outputs": [],
      "stateMutability": "payable",
      "type": "function",
      "payable": true
    },
    {
      "inputs": [],
      "name": "withdraw",
      "outputs": [
        {
          "internalType": "bool",
          "name": "",
          "type": "bool"
        }
      ],
      "stateMutability": "nonpayable",
      "type": "function"
    },
    {
      "inputs": [
        {
          "internalType": "uint256",
          "name": "_amount",
          "type": "uint256"
        }
      ],
      "name": "tokensToBeReceived",
      "outputs": [
        {
          "internalType": "uint256",
          "name": "",
          "type": "uint256"
        }
      ],
      "stateMutability": "view",
      "type": "function",
      "constant": true
    },
    {
      "inputs": [
        {
          "internalType": "address",
          "name": "_account",
          "type": "address"
        }
      ],
      "name": "balance",
      "outputs": [
        {
          "internalType": "uint256",
          "name": "",
          "type": "uint256"
        }
      ],
      "stateMutability": "view",
      "type": "function",
      "constant": true
    },
    {
      "inputs": [
        {
          "internalType": "address",
          "name": "fundAddress_",
          "type": "address"
        }
      ],
      "name": "setFundAddress",
      "outputs": [],
      "stateMutability": "nonpayable",
      "type": "function"
    },
    {
      "inputs": [],
      "name": "withdrawBNB",
      "outputs": [
        {
          "internalType": "bool",
          "name": "",
          "type": "bool"
        }
      ],
      "stateMutability": "nonpayable",
      "type": "function"
    }
  ],
  "bytecode": "0x60806040523480156200001157600080fd5b5060405162002b2a38038062002b2a8339818101604052810190620000379190620001e3565b620000576200004b620000e960201b60201c565b620000f160201b60201c565b82600160006101000a81548173ffffffffffffffffffffffffffffffffffffffff021916908373ffffffffffffffffffffffffffffffffffffffff1602179055508160028190555080600360006101000a81548173ffffffffffffffffffffffffffffffffffffffff021916908373ffffffffffffffffffffffffffffffffffffffff160217905550505050620002b6565b600033905090565b60008060009054906101000a900473ffffffffffffffffffffffffffffffffffffffff169050816000806101000a81548173ffffffffffffffffffffffffffffffffffffffff021916908373ffffffffffffffffffffffffffffffffffffffff1602179055508173ffffffffffffffffffffffffffffffffffffffff168173ffffffffffffffffffffffffffffffffffffffff167f8be0079c531659141344cd1fd0a4f28419497f9722a3daafe3b4186f6b6457e060405160405180910390a35050565b600081519050620001c68162000282565b92915050565b600081519050620001dd816200029c565b92915050565b600080600060608486031215620001ff57620001fe6200027d565b5b60006200020f86828701620001b5565b93505060206200022286828701620001cc565b92505060406200023586828701620001b5565b9150509250925092565b60006200024c8262000253565b9050919050565b600073ffffffffffffffffffffffffffffffffffffffff82169050919050565b6000819050919050565b600080fd5b6200028d816200023f565b81146200029957600080fd5b50565b620002a78162000273565b8114620002b357600080fd5b50565b61286480620002c66000396000f3fe6080604052600436106100eb5760003560e01c806385dc30041161008a578063d005524c11610059578063d005524c146102d7578063e3d670d714610314578063f2fde38b14610351578063f4067a961461037a576100fa565b806385dc30041461021b5780638ca9e721146102445780638da5cb5b1461026f578063b6cf4fa31461029a576100fa565b80633ccfd60b116100c65780633ccfd60b146101925780633cef5c60146101bd5780636a0d4cbf146101fa578063715018a614610204576100fa565b80620c7019146100ff5780631d111d131461012a57806334fcf43714610155576100fa565b366100fa576100f8610384565b005b600080fd5b34801561010b57600080fd5b506101146106d8565b60405161012191906120ab565b60405180910390f35b34801561013657600080fd5b5061013f610726565b60405161014c9190611e70565b60405180910390f35b34801561016157600080fd5b5061017c60048036038101906101779190611b1a565b610835565b6040516101899190611e70565b60405180910390f35b34801561019e57600080fd5b506101a7610958565b6040516101b49190611e70565b60405180910390f35b3480156101c957600080fd5b506101e460048036038101906101df9190611b1a565b610c05565b6040516101f19190611e70565b60405180910390f35b610202610384565b005b34801561021057600080fd5b50610219610d52565b005b34801561022757600080fd5b50610242600480360381019061023d9190611ac0565b610dda565b005b34801561025057600080fd5b50610259610e9a565b6040516102669190611e70565b60405180910390f35b34801561027b57600080fd5b50610284611023565b6040516102919190611e03565b60405180910390f35b3480156102a657600080fd5b506102c160048036038101906102bc9190611b1a565b61104c565b6040516102ce9190611e70565b60405180910390f35b3480156102e357600080fd5b506102fe60048036038101906102f99190611b1a565b61120d565b60405161030b91906120ab565b60405180910390f35b34801561032057600080fd5b5061033b60048036038101906103369190611ac0565b611254565b60405161034891906120ab565b60405180910390f35b34801561035d57600080fd5b5061037860048036038101906103739190611ac0565b6112a0565b005b610382611398565b005b674563918244f400006008600061039961177f565b73ffffffffffffffffffffffffffffffffffffffff1673ffffffffffffffffffffffffffffffffffffffff168152602001908152602001600020541115610415576040517f08c379a000000000000000000000000000000000000000000000000000000000815260040161040c90611eab565b60405180910390fd5b60045442101561045a576040517f08c379a00000000000000000000000000000000000000000000000000000000081526004016104519061208b565b60405180910390fd5b600554421061049e576040517f08c379a000000000000000000000000000000000000000000000000000000000815260040161049590611f8b565b60405180910390fd5b600660019054906101000a900460ff16156104ee576040517f08c379a00000000000000000000000000000000000000000000000000000000081526004016104e590611feb565b60405180910390fd5b6000670de0b6b3a7640000346105049190612187565b90506000600254826105169190612156565b905080600160009054906101000a900473ffffffffffffffffffffffffffffffffffffffff1673ffffffffffffffffffffffffffffffffffffffff166370a08231306040518263ffffffff1660e01b81526004016105749190611e03565b60206040518083038186803b15801561058c57600080fd5b505afa1580156105a0573d6000803e3d6000fd5b505050506040513d601f19601f820116820180604052508101906105c49190611b47565b1015610605576040517f08c379a00000000000000000000000000000000000000000000000000000000081526004016105fc90611eeb565b60405180910390fd5b60006007600061061361177f565b73ffffffffffffffffffffffffffffffffffffffff1673ffffffffffffffffffffffffffffffffffffffff168152602001908152602001600020905081816000015461065f9190612100565b816000018190555060008160010154141561068c5762278d00426106839190612100565b81600101819055505b61069583611787565b7f1b30646e5a4a5f8ce5828dd83a22791391ed5b608df7696369793cf410ecd02e6106be61177f565b6040516106cb9190611e03565b60405180910390a1505050565b6000600660019054906101000a900460ff16156106f85760009050610723565b600042905080600554111561071d578060055461071591906121e1565b915050610723565b60009150505b90565b6000600360009054906101000a900473ffffffffffffffffffffffffffffffffffffffff1673ffffffffffffffffffffffffffffffffffffffff1661076961177f565b73ffffffffffffffffffffffffffffffffffffffff16146107bf576040517f08c379a00000000000000000000000000000000000000000000000000000000081526004016107b690611f6b565b60405180910390fd5b6000479050600360009054906101000a900473ffffffffffffffffffffffffffffffffffffffff1673ffffffffffffffffffffffffffffffffffffffff166108fc829081150290604051600060405180830381858888f1935050505015801561082c573d6000803e3d6000fd5b50600191505090565b6000600360009054906101000a900473ffffffffffffffffffffffffffffffffffffffff1673ffffffffffffffffffffffffffffffffffffffff1661087861177f565b73ffffffffffffffffffffffffffffffffffffffff16146108ce576040517f08c379a00000000000000000000000000000000000000000000000000000000081526004016108c590611f6b565b60405180910390fd5b60008211610911576040517f08c379a000000000000000000000000000000000000000000000000000000000815260040161090890611f2b565b60405180910390fd5b816002819055507f595a30f13a69b616c4d568e2a2b7875fdfe86e4300a049953c76ee278f8f3f108260405161094791906120ab565b60405180910390a160019050919050565b6000426007600061096761177f565b73ffffffffffffffffffffffffffffffffffffffff1673ffffffffffffffffffffffffffffffffffffffff1681526020019081526020016000206001015411156109e6576040517f08c379a00000000000000000000000000000000000000000000000000000000081526004016109dd9061200b565b60405180910390fd5b600160009054906101000a900473ffffffffffffffffffffffffffffffffffffffff1673ffffffffffffffffffffffffffffffffffffffff1663a9059cbb610a2c61177f565b60076000610a3861177f565b73ffffffffffffffffffffffffffffffffffffffff1673ffffffffffffffffffffffffffffffffffffffff168152602001908152602001600020600001546040518363ffffffff1660e01b8152600401610a93929190611e47565b602060405180830381600087803b158015610aad57600080fd5b505af1158015610ac1573d6000803e3d6000fd5b505050506040513d601f19601f82011682018060405250810190610ae59190611aed565b610b24576040517f08c379a0000000000000000000000000000000000000000000000000000000008152600401610b1b90611e8b565b60405180910390fd5b600060076000610b3261177f565b73ffffffffffffffffffffffffffffffffffffffff1673ffffffffffffffffffffffffffffffffffffffff1681526020019081526020016000209050600081600001819055507ffe2ff4cf36ff7d2c2b06eb960897ee0d76d9c3e58da12feb7b93e86b226dd344610ba161177f565b60076000610bad61177f565b73ffffffffffffffffffffffffffffffffffffffff1673ffffffffffffffffffffffffffffffffffffffff16815260200190815260200160002060000154604051610bf9929190611e47565b60405180910390a15090565b6000600360009054906101000a900473ffffffffffffffffffffffffffffffffffffffff1673ffffffffffffffffffffffffffffffffffffffff16610c4861177f565b73ffffffffffffffffffffffffffffffffffffffff1614610c9e576040517f08c379a0000000000000000000000000000000000000000000000000000000008152600401610c9590611f6b565b60405180910390fd5b600660019054906101000a900460ff1615610cee576040517f08c379a0000000000000000000000000000000000000000000000000000000008152600401610ce59061206b565b60405180910390fd5b6201518082610cfd9190612187565b600554610d0a9190612100565b6005819055507fb967751422909c5c37ffebf0aabcac50c167b9f4dd8a0012233b02570851ee9a600554604051610d4191906120ab565b60405180910390a160019050919050565b610d5a61177f565b73ffffffffffffffffffffffffffffffffffffffff16610d78611023565b73ffffffffffffffffffffffffffffffffffffffff1614610dce576040517f08c379a0000000000000000000000000000000000000000000000000000000008152600401610dc590611fcb565b60405180910390fd5b610dd86000611826565b565b610de261177f565b73ffffffffffffffffffffffffffffffffffffffff16610e00611023565b73ffffffffffffffffffffffffffffffffffffffff1614610e56576040517f08c379a0000000000000000000000000000000000000000000000000000000008152600401610e4d90611fcb565b60405180910390fd5b80600360006101000a81548173ffffffffffffffffffffffffffffffffffffffff021916908373ffffffffffffffffffffffffffffffffffffffff16021790555050565b6000600360009054906101000a900473ffffffffffffffffffffffffffffffffffffffff1673ffffffffffffffffffffffffffffffffffffffff16610edd61177f565b73ffffffffffffffffffffffffffffffffffffffff1614610f33576040517f08c379a0000000000000000000000000000000000000000000000000000000008152600401610f2a90611f6b565b60405180910390fd5b600660019054906101000a900460ff1615610f83576040517f08c379a0000000000000000000000000000000000000000000000000000000008152600401610f7a90611f4b565b60405180910390fd5b610f8b6118ea565b610fca576040517f08c379a0000000000000000000000000000000000000000000000000000000008152600401610fc190611f0b565b60405180910390fd5b6001600660016101000a81548160ff0219169083151502179055507f2766cc0193fdcbba9978f4b3ea0944b0f91ff93c798323787d39f1104758592e4260405161101491906120ab565b60405180910390a16001905090565b60008060009054906101000a900473ffffffffffffffffffffffffffffffffffffffff16905090565b6000600360009054906101000a900473ffffffffffffffffffffffffffffffffffffffff1673ffffffffffffffffffffffffffffffffffffffff1661108f61177f565b73ffffffffffffffffffffffffffffffffffffffff16146110e5576040517f08c379a00000000000000000000000000000000000000000000000000000000081526004016110dc90611f6b565b60405180910390fd5b600660009054906101000a900460ff1615611135576040517f08c379a000000000000000000000000000000000000000000000000000000000815260040161112c90611fab565b60405180910390fd5b600660019054906101000a900460ff1615611185576040517f08c379a000000000000000000000000000000000000000000000000000000000815260040161117c9061202b565b60405180910390fd5b42600481905550620151808261119b9190612187565b426111a69190612100565b6005819055506001600660006101000a81548160ff0219169083151502179055507f3b96a28e3c46ec50fd7ca28967e72111a49463601e7b1908018d07e6552b1c176004546005546040516111fc9291906120c6565b60405180910390a160019050919050565b600080600254600254846112219190612156565b8461122c9190612187565b6112369190612156565b9050670de0b6b3a76400008161124c9190612187565b915050919050565b6000600760008373ffffffffffffffffffffffffffffffffffffffff1673ffffffffffffffffffffffffffffffffffffffff168152602001908152602001600020600001549050919050565b6112a861177f565b73ffffffffffffffffffffffffffffffffffffffff166112c6611023565b73ffffffffffffffffffffffffffffffffffffffff161461131c576040517f08c379a000000000000000000000000000000000000000000000000000000000815260040161131390611fcb565b60405180910390fd5b600073ffffffffffffffffffffffffffffffffffffffff168173ffffffffffffffffffffffffffffffffffffffff16141561138c576040517f08c379a000000000000000000000000000000000000000000000000000000000815260040161138390611ecb565b60405180910390fd5b61139581611826565b50565b674563918244f40000600860006113ad61177f565b73ffffffffffffffffffffffffffffffffffffffff1673ffffffffffffffffffffffffffffffffffffffff168152602001908152602001600020541115611429576040517f08c379a000000000000000000000000000000000000000000000000000000000815260040161142090611eab565b60405180910390fd5b60045442101561146e576040517f08c379a00000000000000000000000000000000000000000000000000000000081526004016114659061208b565b60405180910390fd5b60055442106114b2576040517f08c379a00000000000000000000000000000000000000000000000000000000081526004016114a990611f8b565b60405180910390fd5b600660019054906101000a900460ff1615611502576040517f08c379a00000000000000000000000000000000000000000000000000000000081526004016114f990611feb565b60405180910390fd5b6000670de0b6b3a7640000346115189190612187565b905060006002548261152a9190612156565b90506000606460198361153d9190612187565b6115479190612156565b905080600160009054906101000a900473ffffffffffffffffffffffffffffffffffffffff1673ffffffffffffffffffffffffffffffffffffffff166370a08231306040518263ffffffff1660e01b81526004016115a59190611e03565b60206040518083038186803b1580156115bd57600080fd5b505afa1580156115d1573d6000803e3d6000fd5b505050506040513d601f19601f820116820180604052508101906115f59190611b47565b1015611636576040517f08c379a000000000000000000000000000000000000000000000000000000000815260040161162d90611eeb565b60405180910390fd5b6000600160009054906101000a900473ffffffffffffffffffffffffffffffffffffffff1673ffffffffffffffffffffffffffffffffffffffff1663a9059cbb61167e61177f565b846040518363ffffffff1660e01b815260040161169c929190611e47565b602060405180830381600087803b1580156116b657600080fd5b505af11580156116ca573d6000803e3d6000fd5b505050506040513d601f19601f820116820180604052508101906116ee9190611aed565b905080611730576040517f08c379a00000000000000000000000000000000000000000000000000000000081526004016117279061204b565b60405180910390fd5b61173984611787565b7ffe2ff4cf36ff7d2c2b06eb960897ee0d76d9c3e58da12feb7b93e86b226dd34461176261177f565b83604051611771929190611e47565b60405180910390a150505050565b600033905090565b806008600061179461177f565b73ffffffffffffffffffffffffffffffffffffffff1673ffffffffffffffffffffffffffffffffffffffff168152602001908152602001600020546117d99190612100565b600860006117e561177f565b73ffffffffffffffffffffffffffffffffffffffff1673ffffffffffffffffffffffffffffffffffffffff1681526020019081526020016000208190555050565b60008060009054906101000a900473ffffffffffffffffffffffffffffffffffffffff169050816000806101000a81548173ffffffffffffffffffffffffffffffffffffffff021916908373ffffffffffffffffffffffffffffffffffffffff1602179055508173ffffffffffffffffffffffffffffffffffffffff168173ffffffffffffffffffffffffffffffffffffffff167f8be0079c531659141344cd1fd0a4f28419497f9722a3daafe3b4186f6b6457e060405160405180910390a35050565b6000600160009054906101000a900473ffffffffffffffffffffffffffffffffffffffff1673ffffffffffffffffffffffffffffffffffffffff1663a9059cbb600360009054906101000a900473ffffffffffffffffffffffffffffffffffffffff16600160009054906101000a900473ffffffffffffffffffffffffffffffffffffffff1673ffffffffffffffffffffffffffffffffffffffff166370a08231306040518263ffffffff1660e01b81526004016119a89190611e03565b60206040518083038186803b1580156119c057600080fd5b505afa1580156119d4573d6000803e3d6000fd5b505050506040513d601f19601f820116820180604052508101906119f89190611b47565b6040518363ffffffff1660e01b8152600401611a15929190611e1e565b602060405180830381600087803b158015611a2f57600080fd5b505af1158015611a43573d6000803e3d6000fd5b505050506040513d601f19601f82011682018060405250810190611a679190611aed565b905090565b600081359050611a7b816127e9565b92915050565b600081519050611a9081612800565b92915050565b600081359050611aa581612817565b92915050565b600081519050611aba81612817565b92915050565b600060208284031215611ad657611ad56122f1565b5b6000611ae484828501611a6c565b91505092915050565b600060208284031215611b0357611b026122f1565b5b6000611b1184828501611a81565b91505092915050565b600060208284031215611b3057611b2f6122f1565b5b6000611b3e84828501611a96565b91505092915050565b600060208284031215611b5d57611b5c6122f1565b5b6000611b6b84828501611aab565b91505092915050565b611b7d8161225d565b82525050565b611b8c81612215565b82525050565b611b9b81612227565b82525050565b6000611bae6024836120ef565b9150611bb9826122f6565b604082019050919050565b6000611bd16026836120ef565b9150611bdc82612345565b604082019050919050565b6000611bf46026836120ef565b9150611bff82612394565b604082019050919050565b6000611c176024836120ef565b9150611c22826123e3565b604082019050919050565b6000611c3a602e836120ef565b9150611c4582612432565b604082019050919050565b6000611c5d6026836120ef565b9150611c6882612481565b604082019050919050565b6000611c806029836120ef565b9150611c8b826124d0565b604082019050919050565b6000611ca36036836120ef565b9150611cae8261251f565b604082019050919050565b6000611cc66019836120ef565b9150611cd18261256e565b602082019050919050565b6000611ce96021836120ef565b9150611cf482612597565b604082019050919050565b6000611d0c6020836120ef565b9150611d17826125e6565b602082019050919050565b6000611d2f6022836120ef565b9150611d3a8261260f565b604082019050919050565b6000611d52603d836120ef565b9150611d5d8261265e565b604082019050919050565b6000611d756021836120ef565b9150611d80826126ad565b604082019050919050565b6000611d986024836120ef565b9150611da3826126fc565b604082019050919050565b6000611dbb6021836120ef565b9150611dc68261274b565b604082019050919050565b6000611dde6021836120ef565b9150611de98261279a565b604082019050919050565b611dfd81612253565b82525050565b6000602082019050611e186000830184611b83565b92915050565b6000604082019050611e336000830185611b74565b611e406020830184611df4565b9392505050565b6000604082019050611e5c6000830185611b83565b611e696020830184611df4565b9392505050565b6000602082019050611e856000830184611b92565b92915050565b60006020820190508181036000830152611ea481611ba1565b9050919050565b60006020820190508181036000830152611ec481611bc4565b9050919050565b60006020820190508181036000830152611ee481611be7565b9050919050565b60006020820190508181036000830152611f0481611c0a565b9050919050565b60006020820190508181036000830152611f2481611c2d565b9050919050565b60006020820190508181036000830152611f4481611c50565b9050919050565b60006020820190508181036000830152611f6481611c73565b9050919050565b60006020820190508181036000830152611f8481611c96565b9050919050565b60006020820190508181036000830152611fa481611cb9565b9050919050565b60006020820190508181036000830152611fc481611cdc565b9050919050565b60006020820190508181036000830152611fe481611cff565b9050919050565b6000602082019050818103600083015261200481611d22565b9050919050565b6000602082019050818103600083015261202481611d45565b9050919050565b6000602082019050818103600083015261204481611d68565b9050919050565b6000602082019050818103600083015261206481611d8b565b9050919050565b6000602082019050818103600083015261208481611dae565b9050919050565b600060208201905081810360008301526120a481611dd1565b9050919050565b60006020820190506120c06000830184611df4565b92915050565b60006040820190506120db6000830185611df4565b6120e86020830184611df4565b9392505050565b600082825260208201905092915050565b600061210b82612253565b915061211683612253565b9250827fffffffffffffffffffffffffffffffffffffffffffffffffffffffffffffffff0382111561214b5761214a612293565b5b828201905092915050565b600061216182612253565b915061216c83612253565b92508261217c5761217b6122c2565b5b828204905092915050565b600061219282612253565b915061219d83612253565b9250817fffffffffffffffffffffffffffffffffffffffffffffffffffffffffffffffff04831182151516156121d6576121d5612293565b5b828202905092915050565b60006121ec82612253565b91506121f783612253565b92508282101561220a57612209612293565b5b828203905092915050565b600061222082612233565b9050919050565b60008115159050919050565b600073ffffffffffffffffffffffffffffffffffffffff82169050919050565b6000819050919050565b60006122688261226f565b9050919050565b600061227a82612281565b9050919050565b600061228c82612233565b9050919050565b7f4e487b7100000000000000000000000000000000000000000000000000000000600052601160045260246000fd5b7f4e487b7100000000000000000000000000000000000000000000000000000000600052601260045260246000fd5b600080fd5b7f43726f776453616c653a20436f756c64206e6f7420776974686472617720746f60008201527f6b656e7300000000000000000000000000000000000000000000000000000000602082015250565b7f43726f776473616c653a20596f7520686176652065786365656465642074686560008201527f2071756f74610000000000000000000000000000000000000000000000000000602082015250565b7f4f776e61626c653a206e6577206f776e657220697320746865207a65726f206160008201527f6464726573730000000000000000000000000000000000000000000000000000602082015250565b7f43726f776453616c653a204e6f7420656e6f75676820746f6b656e7320746f2060008201527f73656c6c00000000000000000000000000000000000000000000000000000000602082015250565b7f43726f776453616c653a20436f756c64206e6f74207472616e7366657220726560008201527f6d61696e696e6720746f6b656e73000000000000000000000000000000000000602082015250565b7f43726f776473616c653a2052617465206d75737420626520677265617465722060008201527f7468616e20300000000000000000000000000000000000000000000000000000602082015250565b7f43726f776453616c653a2053616c652063616e6e6f742062652066696e616c6960008201527f7a65642074776963650000000000000000000000000000000000000000000000602082015250565b7f43726f776473616c653a204f6e6c792066756e6420616464726573732063616e60008201527f206578656375746520746869732066756e6374696f6e00000000000000000000602082015250565b7f43726f776453616c653a2053616c652068617320656e64656400000000000000600082015250565b7f43726f776473616c653a2053616c652068617320616c7265616479206265677560008201527f6e00000000000000000000000000000000000000000000000000000000000000602082015250565b7f4f776e61626c653a2063616c6c6572206973206e6f7420746865206f776e6572600082015250565b7f43726f776453616c653a2053616c6520686173206265656e2066696e616c697a60008201527f6564000000000000000000000000000000000000000000000000000000000000602082015250565b7f43726f776453616c653a2043616e206f6e6c7920776974686472617720696e2060008201527f333020646179732066726f6d2070757263686173652072657175657374000000602082015250565b7f43726f776473616c653a2053616c6520616c72656164792066696e616c697a6560008201527f6400000000000000000000000000000000000000000000000000000000000000602082015250565b7f43726f776453616c653a204661696c656420746f207472616e7366657220746f60008201527f6b656e7300000000000000000000000000000000000000000000000000000000602082015250565b7f43726f776453616c653a2053616c6520616c72656164792066696e616c697a6560008201527f6400000000000000000000000000000000000000000000000000000000000000602082015250565b7f43726f776453616c653a2053616c6520686173206e6f7420626567756e20796560008201527f7400000000000000000000000000000000000000000000000000000000000000602082015250565b6127f281612215565b81146127fd57600080fd5b50565b61280981612227565b811461281457600080fd5b50565b61282081612253565b811461282b57600080fd5b5056fea2646970667358221220247950a768fa832164dc3bd2f729c4862e16b89767dcd639afdba1dbffa4b1fa64736f6c63430008070033",
  "immutableReferences": {},
  "source": "pragma solidity ^0.8.0;\n\nimport \"@openzeppelin/contracts/utils/Context.sol\";\nimport \"@openzeppelin/contracts/access/Ownable.sol\";\nimport \"@openzeppelin/contracts/token/ERC20/IERC20.sol\";\n\ncontract CrowdSale is Context, Ownable {\n  IERC20 _token;\n  uint256 _rate;\n  address payable _fundAddress;\n  uint256 _startTime;\n  uint256 _endTime;\n  bool _initialized;\n  bool _finalized;\n\n  struct PaymentRecord {\n    uint256 _amount;\n    uint256 _withdrawalTime;\n  }\n\n  mapping(address => PaymentRecord) _withdrawalList;\n  mapping(address => uint256) _buyRecord;\n\n  modifier notExceed5BNB() {\n    require(\n      _buyRecord[_msgSender()] <= (5 * 10**18),\n      \"Crowdsale: You have exceeded the quota\"\n    );\n    _;\n  }\n\n  modifier onlyFundAddress() {\n    require(\n      _msgSender() == _fundAddress,\n      \"Crowdsale: Only fund address can execute this function\"\n    );\n    _;\n  }\n\n  event PaymentMade(address buyer, uint256 amount);\n  event RateChanged(uint256 newRate);\n  event CrowdSaleBegun(uint256 startTime, uint256 endTime);\n  event CrowdSaleExtended(uint256 newEndTime);\n  event CrowdSaleFinalized(uint256 timestamp);\n  event WhiteListedForWithdrawal(address account);\n  event TokenSold(address recipient, uint256 amount);\n\n  constructor(\n    address token_,\n    uint256 rate_,\n    address fundAddress_\n  ) public Ownable() {\n    _token = IERC20(token_);\n    _rate = rate_;\n    _fundAddress = payable(fundAddress_);\n  }\n\n  function _incrementRecordAmount(uint256 _amount) private {\n    _buyRecord[_msgSender()] = _buyRecord[_msgSender()] + _amount;\n  }\n\n  function setRate(uint256 rate_) external onlyFundAddress returns (bool) {\n    require(rate_ > 0, \"Crowdsale: Rate must be greater than 0\");\n    _rate = rate_;\n    emit RateChanged(rate_);\n    return true;\n  }\n\n  function beginCrowdSale(uint256 _days)\n    external\n    onlyFundAddress\n    returns (bool)\n  {\n    require(!_initialized, \"Crowdsale: Sale has already begun\");\n    require(!_finalized, \"Crowdsale: Sale already finalized\");\n    _startTime = block.timestamp;\n    _endTime = block.timestamp + (_days * 1 days);\n    _initialized = true;\n    emit CrowdSaleBegun(_startTime, _endTime);\n    return true;\n  }\n\n  function extendCrowdSale(uint256 _days)\n    external\n    onlyFundAddress\n    returns (bool)\n  {\n    require(!_finalized, \"CrowdSale: Sale already finalized\");\n    _endTime = _endTime + (_days * 1 days);\n    emit CrowdSaleExtended(_endTime);\n    return true;\n  }\n\n  function _transferRemainingTokens() private returns (bool) {\n    return _token.transfer(_fundAddress, _token.balanceOf(address(this)));\n  }\n\n  function finalizeCrowdSale() external onlyFundAddress returns (bool) {\n    require(!_finalized, \"CrowdSale: Sale cannot be finalized twice\");\n    require(\n      _transferRemainingTokens(),\n      \"CrowdSale: Could not transfer remaining tokens\"\n    );\n    _finalized = true;\n    emit CrowdSaleFinalized(block.timestamp);\n    return true;\n  }\n\n  function getRemainingDays() public view returns (uint256) {\n    if (_finalized) return 0;\n\n    uint256 currentTimestamp = block.timestamp;\n\n    if (_endTime > currentTimestamp) return _endTime - currentTimestamp;\n\n    return 0;\n  }\n\n  function buyWithImmediateWithdrawal() public payable notExceed5BNB {\n    require(block.timestamp >= _startTime, \"CrowdSale: Sale has not begun yet\");\n    require(block.timestamp < _endTime, \"CrowdSale: Sale has ended\");\n    require(!_finalized, \"CrowdSale: Sale has been finalized\");\n\n    uint256 _valueAsWei = msg.value * 10**18;\n    uint256 _valueDividedByRate = _valueAsWei / _rate;\n    uint256 _25Percent = (_valueDividedByRate * 25) / 100;\n\n    require(\n      _token.balanceOf(address(this)) >= _25Percent,\n      \"CrowdSale: Not enough tokens to sell\"\n    );\n    bool _sold = _token.transfer(_msgSender(), _25Percent);\n\n    require(_sold, \"CrowdSale: Failed to transfer tokens\");\n\n    _incrementRecordAmount(_valueAsWei);\n\n    emit TokenSold(_msgSender(), _25Percent);\n  }\n\n  function buyWithLateWithdrawal() public payable notExceed5BNB {\n    require(block.timestamp >= _startTime, \"CrowdSale: Sale has not begun yet\");\n    require(block.timestamp < _endTime, \"CrowdSale: Sale has ended\");\n    require(!_finalized, \"CrowdSale: Sale has been finalized\");\n\n    uint256 _valueAsWei = msg.value * 10**18;\n    uint256 _valueDividedByRate = _valueAsWei / _rate;\n\n    require(\n      _token.balanceOf(address(this)) >= _valueDividedByRate,\n      \"CrowdSale: Not enough tokens to sell\"\n    );\n\n    PaymentRecord storage _paymentRecord = _withdrawalList[_msgSender()];\n    _paymentRecord._amount = _paymentRecord._amount + _valueDividedByRate;\n\n    if (_paymentRecord._withdrawalTime == 0) {\n      _paymentRecord._withdrawalTime = block.timestamp + (30 * 1 days);\n    }\n\n    _incrementRecordAmount(_valueAsWei);\n    emit WhiteListedForWithdrawal(_msgSender());\n  }\n\n  function withdraw() external returns (bool) {\n    require(\n      _withdrawalList[_msgSender()]._withdrawalTime <= block.timestamp,\n      \"CrowdSale: Can only withdraw in 30 days from purchase request\"\n    );\n    require(\n      _token.transfer(_msgSender(), _withdrawalList[_msgSender()]._amount),\n      \"CrowdSale: Could not withdraw tokens\"\n    );\n    PaymentRecord storage _paymentRecord = _withdrawalList[_msgSender()];\n    _paymentRecord._amount = 0;\n    emit TokenSold(_msgSender(), _withdrawalList[_msgSender()]._amount);\n  }\n\n  function tokensToBeReceived(uint256 _amount) public view returns (uint256) {\n    uint256 _tbr = (_amount * (_amount / _rate)) / _rate;\n    return _tbr * 10**18;\n  }\n\n  function balance(address _account) public view returns (uint256) {\n    return _withdrawalList[_account]._amount;\n  }\n\n  function setFundAddress(address fundAddress_) external onlyOwner {\n    _fundAddress = payable(fundAddress_);\n  }\n\n  function withdrawBNB() external onlyFundAddress returns (bool) {\n    uint256 bal = address(this).balance;\n    _fundAddress.transfer(bal);\n    return true;\n  }\n\n  receive() external payable {\n    buyWithLateWithdrawal();\n  }\n}\n",
  "sourcePath": "/home/kingsley/Code-Projects/OTC-SmartContract/contracts/CrowdSale.sol",
  "compiler": {
    "name": "solc",
    "version": "0.8.7+commit.e28d00a7.Emscripten.clang"
  },
  "schemaVersion": "3.4.3",
  "updatedAt": "2021-09-20T20:25:51.669Z",
  "networkType": "ethereum",
  "devdoc": {
    "kind": "dev",
    "methods": {
      "owner()": {
        "details": "Returns the address of the current owner."
      },
      "renounceOwnership()": {
        "details": "Leaves the contract without owner. It will not be possible to call `onlyOwner` functions anymore. Can only be called by the current owner. NOTE: Renouncing ownership will leave the contract without an owner, thereby removing any functionality that is only available to the owner."
      },
      "transferOwnership(address)": {
        "details": "Transfers ownership of the contract to a new account (`newOwner`). Can only be called by the current owner."
      }
    },
    "version": 1
  },
  "userdoc": {
    "kind": "user",
    "methods": {},
    "version": 1
  }
}